{
  "_format": "hh-sol-artifact-1",
  "contractName": "Assignment",
  "sourceName": "contracts/Calculator.sol",
  "abi": [
    {
      "inputs": [],
      "stateMutability": "nonpayable",
      "type": "constructor"
    },
    {
      "anonymous": false,
      "inputs": [
        {
          "indexed": false,
          "internalType": "address",
          "name": "sender",
          "type": "address"
        },
        {
          "indexed": false,
          "internalType": "address",
          "name": "reciever",
          "type": "address"
        },
        {
          "indexed": false,
          "internalType": "uint256",
          "name": "amount",
          "type": "uint256"
        }
      ],
      "name": "captureData",
      "type": "event"
    },
    {
      "anonymous": false,
      "inputs": [
        {
          "indexed": false,
          "internalType": "address",
          "name": "sender",
          "type": "address"
        },
        {
          "indexed": false,
          "internalType": "address",
          "name": "reciver",
          "type": "address"
        },
        {
          "indexed": false,
          "internalType": "uint256",
          "name": "amount",
          "type": "uint256"
        }
      ],
      "name": "captureOwnerReceiveEthData",
      "type": "event"
    },
    {
      "inputs": [],
      "name": "checkBalance",
      "outputs": [
        {
          "internalType": "uint256",
          "name": "",
          "type": "uint256"
        }
      ],
      "stateMutability": "view",
      "type": "function"
    },
    {
      "inputs": [],
      "name": "owner",
      "outputs": [
        {
          "internalType": "address",
          "name": "",
          "type": "address"
        }
      ],
      "stateMutability": "view",
      "type": "function"
    },
    {
      "inputs": [
        {
          "internalType": "address payable",
          "name": "_receiver",
          "type": "address"
        }
      ],
      "name": "sendEth",
      "outputs": [],
      "stateMutability": "payable",
      "type": "function"
    },
    {
      "inputs": [],
      "name": "sendEthToOwner",
      "outputs": [],
      "stateMutability": "payable",
      "type": "function"
    }
  ],
  "bytecode": "0x6080604052348015600f57600080fd5b50336000806101000a81548173ffffffffffffffffffffffffffffffffffffffff021916908373ffffffffffffffffffffffffffffffffffffffff16021790555061064f8061005f6000396000f3fe60806040526004361061003f5760003560e01c806336de16b81461004457806376a54c601461004e5780638da5cb5b1461006a578063c71daccb14610095575b600080fd5b61004c6100c0565b005b610068600480360381019061006391906103cf565b61019d565b005b34801561007657600080fd5b5061007f6102b0565b60405161008c919061041d565b60405180910390f35b3480156100a157600080fd5b506100aa6102d4565b6040516100b79190610451565b60405180910390f35b34600160008282546100d2919061049b565b9250508190555060008054906101000a900473ffffffffffffffffffffffffffffffffffffffff1673ffffffffffffffffffffffffffffffffffffffff166108fc349081150290604051600060405180830381858888f1935050505015801561013f573d6000803e3d6000fd5b507f1934e7a803be96c5ac7e5f66bfbd32294c4d1c4bd569b03c4d449f3230d909f43360008054906101000a900473ffffffffffffffffffffffffffffffffffffffff1634604051610193939291906104cf565b60405180910390a1565b3373ffffffffffffffffffffffffffffffffffffffff1660008054906101000a900473ffffffffffffffffffffffffffffffffffffffff1673ffffffffffffffffffffffffffffffffffffffff161461022b576040517f08c379a000000000000000000000000000000000000000000000000000000000815260040161022290610563565b60405180910390fd5b8073ffffffffffffffffffffffffffffffffffffffff166108fc349081150290604051600060405180830381858888f19350505050158015610271573d6000803e3d6000fd5b507f205a5ad41add06838dbd7d461b2dfb364d754612588ea1d7ef7cd88fbc2fe70d3382346040516102a5939291906105e2565b60405180910390a150565b60008054906101000a900473ffffffffffffffffffffffffffffffffffffffff1681565b60003373ffffffffffffffffffffffffffffffffffffffff1660008054906101000a900473ffffffffffffffffffffffffffffffffffffffff1673ffffffffffffffffffffffffffffffffffffffff1614610364576040517f08c379a000000000000000000000000000000000000000000000000000000000815260040161035b90610563565b60405180910390fd5b600154905090565b600080fd5b600073ffffffffffffffffffffffffffffffffffffffff82169050919050565b600061039c82610371565b9050919050565b6103ac81610391565b81146103b757600080fd5b50565b6000813590506103c9816103a3565b92915050565b6000602082840312156103e5576103e461036c565b5b60006103f3848285016103ba565b91505092915050565b600061040782610371565b9050919050565b610417816103fc565b82525050565b6000602082019050610432600083018461040e565b92915050565b6000819050919050565b61044b81610438565b82525050565b60006020820190506104666000830184610442565b92915050565b7f4e487b7100000000000000000000000000000000000000000000000000000000600052601160045260246000fd5b60006104a682610438565b91506104b183610438565b92508282019050808211156104c9576104c861046c565b5b92915050565b60006060820190506104e4600083018661040e565b6104f1602083018561040e565b6104fe6040830184610442565b949350505050565b600082825260208201905092915050565b7f596f7520617265206e6f74206f776e6572000000000000000000000000000000600082015250565b600061054d601183610506565b915061055882610517565b602082019050919050565b6000602082019050818103600083015261057c81610540565b9050919050565b6000819050919050565b60006105a86105a361059e84610371565b610583565b610371565b9050919050565b60006105ba8261058d565b9050919050565b60006105cc826105af565b9050919050565b6105dc816105c1565b82525050565b60006060820190506105f7600083018661040e565b61060460208301856105d3565b6106116040830184610442565b94935050505056fea2646970667358221220bde0d528aa7c0a91dab83030e993bda73bddda37c47096822f8e20b16d85464c64736f6c634300081b0033",
  "linkReferences": {},
  "deployedLinkReferences": {}
}